{
  "_format": "hh-sol-artifact-1",
  "contractName": "MyEpicNFT",
  "sourceName": "contracts/MyEpicNFT.sol",
  "abi": [
    {
      "inputs": [],
      "stateMutability": "nonpayable",
      "type": "constructor"
    },
    {
      "anonymous": false,
      "inputs": [
        {
          "indexed": true,
          "internalType": "address",
          "name": "owner",
          "type": "address"
        },
        {
          "indexed": true,
          "internalType": "address",
          "name": "approved",
          "type": "address"
        },
        {
          "indexed": true,
          "internalType": "uint256",
          "name": "tokenId",
          "type": "uint256"
        }
      ],
      "name": "Approval",
      "type": "event"
    },
    {
      "anonymous": false,
      "inputs": [
        {
          "indexed": true,
          "internalType": "address",
          "name": "owner",
          "type": "address"
        },
        {
          "indexed": true,
          "internalType": "address",
          "name": "operator",
          "type": "address"
        },
        {
          "indexed": false,
          "internalType": "bool",
          "name": "approved",
          "type": "bool"
        }
      ],
      "name": "ApprovalForAll",
      "type": "event"
    },
    {
      "anonymous": false,
      "inputs": [
        {
          "indexed": false,
          "internalType": "address",
          "name": "sender",
          "type": "address"
        },
        {
          "indexed": false,
          "internalType": "uint256",
          "name": "tokenId",
          "type": "uint256"
        }
      ],
      "name": "NewEpicNFTMinted",
      "type": "event"
    },
    {
      "anonymous": false,
      "inputs": [
        {
          "indexed": true,
          "internalType": "address",
          "name": "from",
          "type": "address"
        },
        {
          "indexed": true,
          "internalType": "address",
          "name": "to",
          "type": "address"
        },
        {
          "indexed": true,
          "internalType": "uint256",
          "name": "tokenId",
          "type": "uint256"
        }
      ],
      "name": "Transfer",
      "type": "event"
    },
    {
      "inputs": [
        {
          "internalType": "address",
          "name": "to",
          "type": "address"
        },
        {
          "internalType": "uint256",
          "name": "tokenId",
          "type": "uint256"
        }
      ],
      "name": "approve",
      "outputs": [],
      "stateMutability": "nonpayable",
      "type": "function"
    },
    {
      "inputs": [
        {
          "internalType": "address",
          "name": "owner",
          "type": "address"
        }
      ],
      "name": "balanceOf",
      "outputs": [
        {
          "internalType": "uint256",
          "name": "",
          "type": "uint256"
        }
      ],
      "stateMutability": "view",
      "type": "function"
    },
    {
      "inputs": [],
      "name": "currentTokenId",
      "outputs": [
        {
          "internalType": "uint256",
          "name": "",
          "type": "uint256"
        }
      ],
      "stateMutability": "view",
      "type": "function"
    },
    {
      "inputs": [
        {
          "internalType": "uint256",
          "name": "tokenId",
          "type": "uint256"
        }
      ],
      "name": "getApproved",
      "outputs": [
        {
          "internalType": "address",
          "name": "",
          "type": "address"
        }
      ],
      "stateMutability": "view",
      "type": "function"
    },
    {
      "inputs": [
        {
          "internalType": "address",
          "name": "owner",
          "type": "address"
        },
        {
          "internalType": "address",
          "name": "operator",
          "type": "address"
        }
      ],
      "name": "isApprovedForAll",
      "outputs": [
        {
          "internalType": "bool",
          "name": "",
          "type": "bool"
        }
      ],
      "stateMutability": "view",
      "type": "function"
    },
    {
      "inputs": [],
      "name": "makeAnEpicNFT",
      "outputs": [],
      "stateMutability": "nonpayable",
      "type": "function"
    },
    {
      "inputs": [],
      "name": "name",
      "outputs": [
        {
          "internalType": "string",
          "name": "",
          "type": "string"
        }
      ],
      "stateMutability": "view",
      "type": "function"
    },
    {
      "inputs": [
        {
          "internalType": "uint256",
          "name": "tokenId",
          "type": "uint256"
        }
      ],
      "name": "ownerOf",
      "outputs": [
        {
          "internalType": "address",
          "name": "",
          "type": "address"
        }
      ],
      "stateMutability": "view",
      "type": "function"
    },
    {
      "inputs": [
        {
          "internalType": "uint256",
          "name": "tokenId",
          "type": "uint256"
        }
      ],
      "name": "pickRandomFirstWord",
      "outputs": [
        {
          "internalType": "string",
          "name": "",
          "type": "string"
        }
      ],
      "stateMutability": "view",
      "type": "function"
    },
    {
      "inputs": [
        {
          "internalType": "uint256",
          "name": "tokenId",
          "type": "uint256"
        }
      ],
      "name": "pickRandomSecondWord",
      "outputs": [
        {
          "internalType": "string",
          "name": "",
          "type": "string"
        }
      ],
      "stateMutability": "view",
      "type": "function"
    },
    {
      "inputs": [
        {
          "internalType": "uint256",
          "name": "tokenId",
          "type": "uint256"
        }
      ],
      "name": "pickRandomThirdWord",
      "outputs": [
        {
          "internalType": "string",
          "name": "",
          "type": "string"
        }
      ],
      "stateMutability": "view",
      "type": "function"
    },
    {
      "inputs": [
        {
          "internalType": "address",
          "name": "from",
          "type": "address"
        },
        {
          "internalType": "address",
          "name": "to",
          "type": "address"
        },
        {
          "internalType": "uint256",
          "name": "tokenId",
          "type": "uint256"
        }
      ],
      "name": "safeTransferFrom",
      "outputs": [],
      "stateMutability": "nonpayable",
      "type": "function"
    },
    {
      "inputs": [
        {
          "internalType": "address",
          "name": "from",
          "type": "address"
        },
        {
          "internalType": "address",
          "name": "to",
          "type": "address"
        },
        {
          "internalType": "uint256",
          "name": "tokenId",
          "type": "uint256"
        },
        {
          "internalType": "bytes",
          "name": "data",
          "type": "bytes"
        }
      ],
      "name": "safeTransferFrom",
      "outputs": [],
      "stateMutability": "nonpayable",
      "type": "function"
    },
    {
      "inputs": [
        {
          "internalType": "address",
          "name": "operator",
          "type": "address"
        },
        {
          "internalType": "bool",
          "name": "approved",
          "type": "bool"
        }
      ],
      "name": "setApprovalForAll",
      "outputs": [],
      "stateMutability": "nonpayable",
      "type": "function"
    },
    {
      "inputs": [
        {
          "internalType": "bytes4",
          "name": "interfaceId",
          "type": "bytes4"
        }
      ],
      "name": "supportsInterface",
      "outputs": [
        {
          "internalType": "bool",
          "name": "",
          "type": "bool"
        }
      ],
      "stateMutability": "view",
      "type": "function"
    },
    {
      "inputs": [],
      "name": "symbol",
      "outputs": [
        {
          "internalType": "string",
          "name": "",
          "type": "string"
        }
      ],
      "stateMutability": "view",
      "type": "function"
    },
    {
      "inputs": [
        {
          "internalType": "uint256",
          "name": "tokenId",
          "type": "uint256"
        }
      ],
      "name": "tokenURI",
      "outputs": [
        {
          "internalType": "string",
          "name": "",
          "type": "string"
        }
      ],
      "stateMutability": "view",
      "type": "function"
    },
    {
      "inputs": [
        {
          "internalType": "address",
          "name": "from",
          "type": "address"
        },
        {
          "internalType": "address",
          "name": "to",
          "type": "address"
        },
        {
          "internalType": "uint256",
          "name": "tokenId",
          "type": "uint256"
        }
      ],
      "name": "transferFrom",
      "outputs": [],
      "stateMutability": "nonpayable",
      "type": "function"
    }
  ],
  "bytecode": "0x608060405260405180610160016040528061012f8152602001620043eb61012f91396008908051906020019062000038929190620007e3565b506040518061010001604052806040518060400160405280600f81526020017fe38395e382b7e382aee38380e3838d000000000000000000000000000000000081525081526020016040518060400160405280600f81526020017fe38381e382b3e383aae383bce382bf000000000000000000000000000000000081525081526020016040518060400160405280600981526020017fe382ade383a2e383aa000000000000000000000000000000000000000000000081525081526020016040518060400160405280600c81526020017fe3838ae382a8e38388e383ab000000000000000000000000000000000000000081525081526020016040518060400160405280600f81526020017fe38384e382bfe383bce382b8e383a3000000000000000000000000000000000081525081526020016040518060400160405280600f81526020017fe3838fe383aae3839ee383ade383b3000000000000000000000000000000000081525081526020016040518060400160405280600c81526020017fe383a2e382afe383ade383bc000000000000000000000000000000000000000081525081526020016040518060400160405280600c81526020017fe382b5e383abe3838ee383aa000000000000000000000000000000000000000081525081525060099060086200022d92919062000874565b506040518061010001604052806040518060400160405280600c81526020017fe382bce3838be382ace383a1000000000000000000000000000000000000000081525081526020016040518060400160405280600c81526020017fe383afe3838be3838ee382b3000000000000000000000000000000000000000081525081526020016040518060400160405280600f81526020017fe3839fe382bae382b4e383ade382a6000000000000000000000000000000000081525081526020016040518060400160405280600f81526020017fe3839de38383e38381e383a3e3839e000000000000000000000000000000000081525081526020016040518060400160405280600f81526020017fe3839fe382b8e383a5e3839ee383ab000000000000000000000000000000000081525081526020016040518060400160405280600c81526020017fe382b1e383ade3839ee38384000000000000000000000000000000000000000081525081526020016040518060400160405280600c81526020017fe382a2e382b7e3839ee383aa000000000000000000000000000000000000000081525081526020016040518060400160405280600c81526020017fe383a1e38383e382bde383b30000000000000000000000000000000000000000815250815250600a9060086200042292919062000874565b506040518061010001604052806040518060400160405280600c81526020017fe38392e38388e382abe382b2000000000000000000000000000000000000000081525081526020016040518060400160405280600f81526020017fe38392e3838ee382a2e383a9e382b7000000000000000000000000000000000081525081526020016040518060400160405280600c81526020017fe382a2e38381e383a3e383a2000000000000000000000000000000000000000081525081526020016040518060400160405280600c81526020017fe38392e382b3e382b6e383ab000000000000000000000000000000000000000081525081526020016040518060400160405280600981526020017fe3839de382abe38396000000000000000000000000000000000000000000000081525081526020016040518060400160405280600c81526020017fe38395e382a9e38383e382b3000000000000000000000000000000000000000081525081526020016040518060400160405280600c81526020017fe3838be383a3e38393e383bc000000000000000000000000000000000000000081525081526020016040518060400160405280600c81526020017fe38392e38390e3838be383bc0000000000000000000000000000000000000000815250815250600b9060086200061792919062000874565b503480156200062557600080fd5b506040518060400160405280600981526020017f5371756172654e465400000000000000000000000000000000000000000000008152506040518060400160405280600681526020017f53515541524500000000000000000000000000000000000000000000000000008152508160009080519060200190620006aa929190620007e3565b508060019080519060200190620006c3929190620007e3565b505050620007116040518060400160405280601881526020017f54686973206973206d79204e465420636f6e74726163742e00000000000000008152506200071760201b620012061760201c565b62000a95565b620007b7816040516024016200072e919062000a0c565b6040516020818303038152906040527f41304fac000000000000000000000000000000000000000000000000000000007bffffffffffffffffffffffffffffffffffffffffffffffffffffffff19166020820180517bffffffffffffffffffffffffffffffffffffffffffffffffffffffff8381831617835250505050620007ba60201b60201c565b50565b60008151905060006a636f6e736f6c652e6c6f679050602083016000808483855afa5050505050565b828054620007f19062000a5f565b90600052602060002090601f01602090048101928262000815576000855562000861565b82601f106200083057805160ff191683800117855562000861565b8280016001018555821562000861579182015b828111156200086057825182559160200191906001019062000843565b5b509050620008709190620008db565b5090565b828054828255906000526020600020908101928215620008c8579160200282015b82811115620008c7578251829080519060200190620008b6929190620007e3565b509160200191906001019062000895565b5b509050620008d79190620008fa565b5090565b5b80821115620008f6576000816000905550600101620008dc565b5090565b5b808211156200091e576000818162000914919062000922565b50600101620008fb565b5090565b508054620009309062000a5f565b6000825580601f1062000944575062000965565b601f016020900490600052602060002090810190620009649190620008db565b5b50565b600081519050919050565b600082825260208201905092915050565b60005b83811015620009a457808201518184015260208101905062000987565b83811115620009b4576000848401525b50505050565b6000601f19601f8301169050919050565b6000620009d88262000968565b620009e4818562000973565b9350620009f681856020860162000984565b62000a0181620009ba565b840191505092915050565b6000602082019050818103600083015262000a288184620009cb565b905092915050565b7f4e487b7100000000000000000000000000000000000000000000000000000000600052602260045260246000fd5b6000600282049050600182168062000a7857607f821691505b6020821081141562000a8f5762000a8e62000a30565b5b50919050565b6139468062000aa56000396000f3fe608060405234801561001057600080fd5b50600436106101155760003560e01c806370a08231116100a2578063b88d4fde11610071578063b88d4fde14610304578063c575757a14610320578063c87b56dd14610350578063de9d132f14610380578063e985e9c51461038a57610115565b806370a082311461026a57806395d89b411461029a578063a22cb465146102b8578063b187301f146102d457610115565b8063095ea7b3116100e9578063095ea7b3146101b657806323b872dd146101d25780632de38d68146101ee57806342842e0e1461021e5780636352211e1461023a57610115565b80629a9b7b1461011a57806301ffc9a71461013857806306fdde0314610168578063081812fc14610186575b600080fd5b6101226103ba565b60405161012f91906123c0565b60405180910390f35b610152600480360381019061014d9190612447565b6103cb565b60405161015f919061248f565b60405180910390f35b6101706104ad565b60405161017d9190612543565b60405180910390f35b6101a0600480360381019061019b9190612591565b61053f565b6040516101ad91906125ff565b60405180910390f35b6101d060048036038101906101cb9190612646565b610585565b005b6101ec60048036038101906101e79190612686565b61069d565b005b61020860048036038101906102039190612591565b6106fd565b6040516102159190612543565b60405180910390f35b61023860048036038101906102339190612686565b610873565b005b610254600480360381019061024f9190612591565b610893565b60405161026191906125ff565b60405180910390f35b610284600480360381019061027f91906126d9565b610945565b60405161029191906123c0565b60405180910390f35b6102a26109fd565b6040516102af9190612543565b60405180910390f35b6102d260048036038101906102cd9190612732565b610a8f565b005b6102ee60048036038101906102e99190612591565b610aa5565b6040516102fb9190612543565b60405180910390f35b61031e600480360381019061031991906128a7565b610c1b565b005b61033a60048036038101906103359190612591565b610c7d565b6040516103479190612543565b60405180910390f35b61036a60048036038101906103659190612591565b610df3565b6040516103779190612543565b60405180910390f35b610388610f06565b005b6103a4600480360381019061039f919061292a565b611172565b6040516103b1919061248f565b60405180910390f35b60006103c6600761129f565b905090565b60007f80ac58cd000000000000000000000000000000000000000000000000000000007bffffffffffffffffffffffffffffffffffffffffffffffffffffffff1916827bffffffffffffffffffffffffffffffffffffffffffffffffffffffff1916148061049657507f5b5e139f000000000000000000000000000000000000000000000000000000007bffffffffffffffffffffffffffffffffffffffffffffffffffffffff1916827bffffffffffffffffffffffffffffffffffffffffffffffffffffffff1916145b806104a657506104a5826112ad565b5b9050919050565b6060600080546104bc90612999565b80601f01602080910402602001604051908101604052809291908181526020018280546104e890612999565b80156105355780601f1061050a57610100808354040283529160200191610535565b820191906000526020600020905b81548152906001019060200180831161051857829003601f168201915b5050505050905090565b600061054a82611317565b6004600083815260200190815260200160002060009054906101000a900473ffffffffffffffffffffffffffffffffffffffff169050919050565b600061059082610893565b90508073ffffffffffffffffffffffffffffffffffffffff168373ffffffffffffffffffffffffffffffffffffffff161415610601576040517f08c379a00000000000000000000000000000000000000000000000000000000081526004016105f890612a3d565b60405180910390fd5b8073ffffffffffffffffffffffffffffffffffffffff16610620611362565b73ffffffffffffffffffffffffffffffffffffffff16148061064f575061064e81610649611362565b611172565b5b61068e576040517f08c379a000000000000000000000000000000000000000000000000000000000815260040161068590612acf565b60405180910390fd5b610698838361136a565b505050565b6106ae6106a8611362565b82611423565b6106ed576040517f08c379a00000000000000000000000000000000000000000000000000000000081526004016106e490612b61565b60405180910390fd5b6106f88383836114b8565b505050565b6060600061073161070d8461171f565b60405160200161071d9190612c09565b604051602081830303815290604052611880565b90506107726040518060400160405280600b81526020017f72616e6420736565643a20000000000000000000000000000000000000000000815250826118b3565b600980549050816107839190612c5a565b90506107c46040518060400160405280601181526020017f72616e6420666972737420776f72643a20000000000000000000000000000000815250826118b3565b600981815481106107d8576107d7612c8b565b5b9060005260206000200180546107ed90612999565b80601f016020809104026020016040519081016040528092919081815260200182805461081990612999565b80156108665780601f1061083b57610100808354040283529160200191610866565b820191906000526020600020905b81548152906001019060200180831161084957829003601f168201915b5050505050915050919050565b61088e83838360405180602001604052806000815250610c1b565b505050565b6000806002600084815260200190815260200160002060009054906101000a900473ffffffffffffffffffffffffffffffffffffffff169050600073ffffffffffffffffffffffffffffffffffffffff168173ffffffffffffffffffffffffffffffffffffffff16141561093c576040517f08c379a000000000000000000000000000000000000000000000000000000000815260040161093390612d06565b60405180910390fd5b80915050919050565b60008073ffffffffffffffffffffffffffffffffffffffff168273ffffffffffffffffffffffffffffffffffffffff1614156109b6576040517f08c379a00000000000000000000000000000000000000000000000000000000081526004016109ad90612d98565b60405180910390fd5b600360008373ffffffffffffffffffffffffffffffffffffffff1673ffffffffffffffffffffffffffffffffffffffff168152602001908152602001600020549050919050565b606060018054610a0c90612999565b80601f0160208091040260200160405190810160405280929190818152602001828054610a3890612999565b8015610a855780601f10610a5a57610100808354040283529160200191610a85565b820191906000526020600020905b815481529060010190602001808311610a6857829003601f168201915b5050505050905090565b610aa1610a9a611362565b838361194f565b5050565b60606000610ad9610ab58461171f565b604051602001610ac59190612e04565b604051602081830303815290604052611880565b9050610b1a6040518060400160405280600b81526020017f72616e6420736565643a20000000000000000000000000000000000000000000815250826118b3565b600a8054905081610b2b9190612c5a565b9050610b6c6040518060400160405280601281526020017f72616e64207365636f6e6420776f72643a200000000000000000000000000000815250826118b3565b600a8181548110610b8057610b7f612c8b565b5b906000526020600020018054610b9590612999565b80601f0160208091040260200160405190810160405280929190818152602001828054610bc190612999565b8015610c0e5780601f10610be357610100808354040283529160200191610c0e565b820191906000526020600020905b815481529060010190602001808311610bf157829003601f168201915b5050505050915050919050565b610c2c610c26611362565b83611423565b610c6b576040517f08c379a0000000000000000000000000000000000000000000000000000000008152600401610c6290612b61565b60405180910390fd5b610c7784848484611abc565b50505050565b60606000610cb1610c8d8461171f565b604051602001610c9d9190612e72565b604051602081830303815290604052611880565b9050610cf26040518060400160405280600b81526020017f72616e6420736565643a20000000000000000000000000000000000000000000815250826118b3565b600b8054905081610d039190612c5a565b9050610d446040518060400160405280601181526020017f72616e6420746869726420776f72643a20000000000000000000000000000000815250826118b3565b600b8181548110610d5857610d57612c8b565b5b906000526020600020018054610d6d90612999565b80601f0160208091040260200160405190810160405280929190818152602001828054610d9990612999565b8015610de65780601f10610dbb57610100808354040283529160200191610de6565b820191906000526020600020905b815481529060010190602001808311610dc957829003601f168201915b5050505050915050919050565b6060610dfe82611317565b6000600660008481526020019081526020016000208054610e1e90612999565b80601f0160208091040260200160405190810160405280929190818152602001828054610e4a90612999565b8015610e975780601f10610e6c57610100808354040283529160200191610e97565b820191906000526020600020905b815481529060010190602001808311610e7a57829003601f168201915b505050505090506000610ea8611b18565b9050600081511415610ebe578192505050610f01565b600082511115610ef3578082604051602001610edb929190612e94565b60405160208183030381529060405292505050610f01565b610efc84611b2f565b925050505b919050565b6000610f12600761129f565b90506000610f1f826106fd565b90506000610f2c83610aa5565b90506000610f3984610c7d565b90506000838383604051602001610f5293929190612eb8565b60405160208183030381529060405290506000600882604051602001610f79929190612fc9565b6040516020818303038152906040529050610fc86040518060400160405280601c81526020017f0a2d2d2d2d2d5356472064617461202d2d2d2d2d2d2d2d2d2d2d2d2d00000000815250611206565b610fd181611206565b61100f6040518060400160405280601381526020017f0a2d2d2d2d2d2d2d2d2d2d2d2d2d2d2d2d2d2d00000000000000000000000000815250611206565b60006110438361101e84611b97565b60405160200161102f92919061314e565b604051602081830303815290604052611b97565b905060008160405160200161105891906131df565b60405160208183030381529060405290506110a76040518060400160405280601d81526020017f0a2d2d2d2d2d2d2d2d546f6b656e20555249202d2d2d2d2d2d2d2d2d2d000000815250611206565b6110b081611206565b6110ee6040518060400160405280601381526020017f0a2d2d2d2d2d2d2d2d2d2d2d2d2d2d2d2d2d2d00000000000000000000000000815250611206565b6110f83389611d2f565b6111028882611d4d565b6111256040518060600160405280602581526020016138ac602591398933611dc1565b61112f6007611e60565b7febb98688741ffa4c7589bf325de30cf7becb63de567842e1ccdb6cb949fdc82c3389604051611160929190613201565b60405180910390a15050505050505050565b6000600560008473ffffffffffffffffffffffffffffffffffffffff1673ffffffffffffffffffffffffffffffffffffffff16815260200190815260200160002060008373ffffffffffffffffffffffffffffffffffffffff1673ffffffffffffffffffffffffffffffffffffffff16815260200190815260200160002060009054906101000a900460ff16905092915050565b61129c8160405160240161121a9190612543565b6040516020818303038152906040527f41304fac000000000000000000000000000000000000000000000000000000007bffffffffffffffffffffffffffffffffffffffffffffffffffffffff19166020820180517bffffffffffffffffffffffffffffffffffffffffffffffffffffffff8381831617835250505050611e76565b50565b600081600001549050919050565b60007f01ffc9a7000000000000000000000000000000000000000000000000000000007bffffffffffffffffffffffffffffffffffffffffffffffffffffffff1916827bffffffffffffffffffffffffffffffffffffffffffffffffffffffff1916149050919050565b61132081611e9f565b61135f576040517f08c379a000000000000000000000000000000000000000000000000000000000815260040161135690612d06565b60405180910390fd5b50565b600033905090565b816004600083815260200190815260200160002060006101000a81548173ffffffffffffffffffffffffffffffffffffffff021916908373ffffffffffffffffffffffffffffffffffffffff160217905550808273ffffffffffffffffffffffffffffffffffffffff166113dd83610893565b73ffffffffffffffffffffffffffffffffffffffff167f8c5be1e5ebec7d5bd14f71427d1e84f3dd0314c0f7b2291e5b200ac8c7c3b92560405160405180910390a45050565b60008061142f83610893565b90508073ffffffffffffffffffffffffffffffffffffffff168473ffffffffffffffffffffffffffffffffffffffff16148061147157506114708185611172565b5b806114af57508373ffffffffffffffffffffffffffffffffffffffff166114978461053f565b73ffffffffffffffffffffffffffffffffffffffff16145b91505092915050565b8273ffffffffffffffffffffffffffffffffffffffff166114d882610893565b73ffffffffffffffffffffffffffffffffffffffff161461152e576040517f08c379a00000000000000000000000000000000000000000000000000000000081526004016115259061329c565b60405180910390fd5b600073ffffffffffffffffffffffffffffffffffffffff168273ffffffffffffffffffffffffffffffffffffffff16141561159e576040517f08c379a00000000000000000000000000000000000000000000000000000000081526004016115959061332e565b60405180910390fd5b6115a9838383611f0b565b6115b460008261136a565b6001600360008573ffffffffffffffffffffffffffffffffffffffff1673ffffffffffffffffffffffffffffffffffffffff1681526020019081526020016000206000828254611604919061337d565b925050819055506001600360008473ffffffffffffffffffffffffffffffffffffffff1673ffffffffffffffffffffffffffffffffffffffff168152602001908152602001600020600082825461165b91906133b1565b92505081905550816002600083815260200190815260200160002060006101000a81548173ffffffffffffffffffffffffffffffffffffffff021916908373ffffffffffffffffffffffffffffffffffffffff160217905550808273ffffffffffffffffffffffffffffffffffffffff168473ffffffffffffffffffffffffffffffffffffffff167fddf252ad1be2c89b69c2b068fc378daa952ba7f163c4a11628f55a4df523b3ef60405160405180910390a461171a838383611f10565b505050565b60606000821415611767576040518060400160405280600181526020017f3000000000000000000000000000000000000000000000000000000000000000815250905061187b565b600082905060005b6000821461179957808061178290613407565b915050600a826117929190613450565b915061176f565b60008167ffffffffffffffff8111156117b5576117b461277c565b5b6040519080825280601f01601f1916602001820160405280156117e75781602001600182028036833780820191505090505b5090505b6000851461187457600182611800919061337d565b9150600a8561180f9190612c5a565b603061181b91906133b1565b60f81b81838151811061183157611830612c8b565b5b60200101907effffffffffffffffffffffffffffffffffffffffffffffffffffffffffffff1916908160001a905350600a8561186d9190613450565b94506117eb565b8093505050505b919050565b6000816040516020016118939190613481565b6040516020818303038152906040528051906020012060001c9050919050565b61194b82826040516024016118c9929190613498565b6040516020818303038152906040527f9710a9d0000000000000000000000000000000000000000000000000000000007bffffffffffffffffffffffffffffffffffffffffffffffffffffffff19166020820180517bffffffffffffffffffffffffffffffffffffffffffffffffffffffff8381831617835250505050611e76565b5050565b8173ffffffffffffffffffffffffffffffffffffffff168373ffffffffffffffffffffffffffffffffffffffff1614156119be576040517f08c379a00000000000000000000000000000000000000000000000000000000081526004016119b590613514565b60405180910390fd5b80600560008573ffffffffffffffffffffffffffffffffffffffff1673ffffffffffffffffffffffffffffffffffffffff16815260200190815260200160002060008473ffffffffffffffffffffffffffffffffffffffff1673ffffffffffffffffffffffffffffffffffffffff16815260200190815260200160002060006101000a81548160ff0219169083151502179055508173ffffffffffffffffffffffffffffffffffffffff168373ffffffffffffffffffffffffffffffffffffffff167f17307eab39ab6107e8899845ad3d59bd9653f200f220920489ca2b5937696c3183604051611aaf919061248f565b60405180910390a3505050565b611ac78484846114b8565b611ad384848484611f15565b611b12576040517f08c379a0000000000000000000000000000000000000000000000000000000008152600401611b09906135a6565b60405180910390fd5b50505050565b606060405180602001604052806000815250905090565b6060611b3a82611317565b6000611b44611b18565b90506000815111611b645760405180602001604052806000815250611b8f565b80611b6e8461171f565b604051602001611b7f929190612e94565b6040516020818303038152906040525b915050919050565b60606000825190506000811415611bc05760405180602001604052806000815250915050611d2a565b60006003600283611bd191906133b1565b611bdb9190613450565b6004611be791906135c6565b90506000602082611bf891906133b1565b67ffffffffffffffff811115611c1157611c1061277c565b5b6040519080825280601f01601f191660200182016040528015611c435781602001600182028036833780820191505090505b50905060006040518060600160405280604081526020016138d1604091399050600181016020830160005b86811015611ce75760038101905062ffffff818a015116603f8160121c168401518060081b905060ff603f83600c1c1686015116810190508060081b905060ff603f8360061c1686015116810190508060081b905060ff603f831686015116810190508060e01b90508084526004840193505050611c6e565b506003860660018114611d015760028114611d1157611d1c565b613d3d60f01b6002830352611d1c565b603d60f81b60018303525b508484525050819450505050505b919050565b611d498282604051806020016040528060008152506120ac565b5050565b611d5682611e9f565b611d95576040517f08c379a0000000000000000000000000000000000000000000000000000000008152600401611d8c90613692565b60405180910390fd5b80600660008481526020019081526020016000209080519060200190611dbc929190612304565b505050565b611e5b838383604051602401611dd9939291906136b2565b6040516020818303038152906040527fe3849f79000000000000000000000000000000000000000000000000000000007bffffffffffffffffffffffffffffffffffffffffffffffffffffffff19166020820180517bffffffffffffffffffffffffffffffffffffffffffffffffffffffff8381831617835250505050611e76565b505050565b6001816000016000828254019250508190555050565b60008151905060006a636f6e736f6c652e6c6f679050602083016000808483855afa5050505050565b60008073ffffffffffffffffffffffffffffffffffffffff166002600084815260200190815260200160002060009054906101000a900473ffffffffffffffffffffffffffffffffffffffff1673ffffffffffffffffffffffffffffffffffffffff1614159050919050565b505050565b505050565b6000611f368473ffffffffffffffffffffffffffffffffffffffff16612107565b1561209f578373ffffffffffffffffffffffffffffffffffffffff1663150b7a02611f5f611362565b8786866040518563ffffffff1660e01b8152600401611f819493929190613745565b602060405180830381600087803b158015611f9b57600080fd5b505af1925050508015611fcc57506040513d601f19601f82011682018060405250810190611fc991906137a6565b60015b61204f573d8060008114611ffc576040519150601f19603f3d011682016040523d82523d6000602084013e612001565b606091505b50600081511415612047576040517f08c379a000000000000000000000000000000000000000000000000000000000815260040161203e906135a6565b60405180910390fd5b805181602001fd5b63150b7a0260e01b7bffffffffffffffffffffffffffffffffffffffffffffffffffffffff1916817bffffffffffffffffffffffffffffffffffffffffffffffffffffffff1916149150506120a4565b600190505b949350505050565b6120b6838361212a565b6120c36000848484611f15565b612102576040517f08c379a00000000000000000000000000000000000000000000000000000000081526004016120f9906135a6565b60405180910390fd5b505050565b6000808273ffffffffffffffffffffffffffffffffffffffff163b119050919050565b600073ffffffffffffffffffffffffffffffffffffffff168273ffffffffffffffffffffffffffffffffffffffff16141561219a576040517f08c379a00000000000000000000000000000000000000000000000000000000081526004016121919061381f565b60405180910390fd5b6121a381611e9f565b156121e3576040517f08c379a00000000000000000000000000000000000000000000000000000000081526004016121da9061388b565b60405180910390fd5b6121ef60008383611f0b565b6001600360008473ffffffffffffffffffffffffffffffffffffffff1673ffffffffffffffffffffffffffffffffffffffff168152602001908152602001600020600082825461223f91906133b1565b92505081905550816002600083815260200190815260200160002060006101000a81548173ffffffffffffffffffffffffffffffffffffffff021916908373ffffffffffffffffffffffffffffffffffffffff160217905550808273ffffffffffffffffffffffffffffffffffffffff16600073ffffffffffffffffffffffffffffffffffffffff167fddf252ad1be2c89b69c2b068fc378daa952ba7f163c4a11628f55a4df523b3ef60405160405180910390a461230060008383611f10565b5050565b82805461231090612999565b90600052602060002090601f0160209004810192826123325760008555612379565b82601f1061234b57805160ff1916838001178555612379565b82800160010185558215612379579182015b8281111561237857825182559160200191906001019061235d565b5b509050612386919061238a565b5090565b5b808211156123a357600081600090555060010161238b565b5090565b6000819050919050565b6123ba816123a7565b82525050565b60006020820190506123d560008301846123b1565b92915050565b6000604051905090565b600080fd5b600080fd5b60007fffffffff0000000000000000000000000000000000000000000000000000000082169050919050565b612424816123ef565b811461242f57600080fd5b50565b6000813590506124418161241b565b92915050565b60006020828403121561245d5761245c6123e5565b5b600061246b84828501612432565b91505092915050565b60008115159050919050565b61248981612474565b82525050565b60006020820190506124a46000830184612480565b92915050565b600081519050919050565b600082825260208201905092915050565b60005b838110156124e45780820151818401526020810190506124c9565b838111156124f3576000848401525b50505050565b6000601f19601f8301169050919050565b6000612515826124aa565b61251f81856124b5565b935061252f8185602086016124c6565b612538816124f9565b840191505092915050565b6000602082019050818103600083015261255d818461250a565b905092915050565b61256e816123a7565b811461257957600080fd5b50565b60008135905061258b81612565565b92915050565b6000602082840312156125a7576125a66123e5565b5b60006125b58482850161257c565b91505092915050565b600073ffffffffffffffffffffffffffffffffffffffff82169050919050565b60006125e9826125be565b9050919050565b6125f9816125de565b82525050565b600060208201905061261460008301846125f0565b92915050565b612623816125de565b811461262e57600080fd5b50565b6000813590506126408161261a565b92915050565b6000806040838503121561265d5761265c6123e5565b5b600061266b85828601612631565b925050602061267c8582860161257c565b9150509250929050565b60008060006060848603121561269f5761269e6123e5565b5b60006126ad86828701612631565b93505060206126be86828701612631565b92505060406126cf8682870161257c565b9150509250925092565b6000602082840312156126ef576126ee6123e5565b5b60006126fd84828501612631565b91505092915050565b61270f81612474565b811461271a57600080fd5b50565b60008135905061272c81612706565b92915050565b60008060408385031215612749576127486123e5565b5b600061275785828601612631565b92505060206127688582860161271d565b9150509250929050565b600080fd5b600080fd5b7f4e487b7100000000000000000000000000000000000000000000000000000000600052604160045260246000fd5b6127b4826124f9565b810181811067ffffffffffffffff821117156127d3576127d261277c565b5b80604052505050565b60006127e66123db565b90506127f282826127ab565b919050565b600067ffffffffffffffff8211156128125761281161277c565b5b61281b826124f9565b9050602081019050919050565b82818337600083830152505050565b600061284a612845846127f7565b6127dc565b90508281526020810184848401111561286657612865612777565b5b612871848285612828565b509392505050565b600082601f83011261288e5761288d612772565b5b813561289e848260208601612837565b91505092915050565b600080600080608085870312156128c1576128c06123e5565b5b60006128cf87828801612631565b94505060206128e087828801612631565b93505060406128f18782880161257c565b925050606085013567ffffffffffffffff811115612912576129116123ea565b5b61291e87828801612879565b91505092959194509250565b60008060408385031215612941576129406123e5565b5b600061294f85828601612631565b925050602061296085828601612631565b9150509250929050565b7f4e487b7100000000000000000000000000000000000000000000000000000000600052602260045260246000fd5b600060028204905060018216806129b157607f821691505b602082108114156129c5576129c461296a565b5b50919050565b7f4552433732313a20617070726f76616c20746f2063757272656e74206f776e6560008201527f7200000000000000000000000000000000000000000000000000000000000000602082015250565b6000612a276021836124b5565b9150612a32826129cb565b604082019050919050565b60006020820190508181036000830152612a5681612a1a565b9050919050565b7f4552433732313a20617070726f76652063616c6c6572206973206e6f7420746f60008201527f6b656e206f776e6572206e6f7220617070726f76656420666f7220616c6c0000602082015250565b6000612ab9603e836124b5565b9150612ac482612a5d565b604082019050919050565b60006020820190508181036000830152612ae881612aac565b9050919050565b7f4552433732313a2063616c6c6572206973206e6f7420746f6b656e206f776e6560008201527f72206e6f7220617070726f766564000000000000000000000000000000000000602082015250565b6000612b4b602e836124b5565b9150612b5682612aef565b604082019050919050565b60006020820190508181036000830152612b7a81612b3e565b9050919050565b600081905092915050565b7f46495253545f574f524400000000000000000000000000000000000000000000600082015250565b6000612bc2600a83612b81565b9150612bcd82612b8c565b600a82019050919050565b6000612be3826124aa565b612bed8185612b81565b9350612bfd8185602086016124c6565b80840191505092915050565b6000612c1482612bb5565b9150612c208284612bd8565b915081905092915050565b7f4e487b7100000000000000000000000000000000000000000000000000000000600052601260045260246000fd5b6000612c65826123a7565b9150612c70836123a7565b925082612c8057612c7f612c2b565b5b828206905092915050565b7f4e487b7100000000000000000000000000000000000000000000000000000000600052603260045260246000fd5b7f4552433732313a20696e76616c696420746f6b656e2049440000000000000000600082015250565b6000612cf06018836124b5565b9150612cfb82612cba565b602082019050919050565b60006020820190508181036000830152612d1f81612ce3565b9050919050565b7f4552433732313a2061646472657373207a65726f206973206e6f74206120766160008201527f6c6964206f776e65720000000000000000000000000000000000000000000000602082015250565b6000612d826029836124b5565b9150612d8d82612d26565b604082019050919050565b60006020820190508181036000830152612db181612d75565b9050919050565b7f5345434f4e445f574f5244000000000000000000000000000000000000000000600082015250565b6000612dee600b83612b81565b9150612df982612db8565b600b82019050919050565b6000612e0f82612de1565b9150612e1b8284612bd8565b915081905092915050565b7f54484952445f574f524400000000000000000000000000000000000000000000600082015250565b6000612e5c600a83612b81565b9150612e6782612e26565b600a82019050919050565b6000612e7d82612e4f565b9150612e898284612bd8565b915081905092915050565b6000612ea08285612bd8565b9150612eac8284612bd8565b91508190509392505050565b6000612ec48286612bd8565b9150612ed08285612bd8565b9150612edc8284612bd8565b9150819050949350505050565b60008190508160005260206000209050919050565b60008154612f0b81612999565b612f158186612b81565b94506001821660008114612f305760018114612f4157612f74565b60ff19831686528186019350612f74565b612f4a85612ee9565b60005b83811015612f6c57815481890152600182019150602081019050612f4d565b838801955050505b50505092915050565b7f3c2f746578743e3c2f7376673e00000000000000000000000000000000000000600082015250565b6000612fb3600d83612b81565b9150612fbe82612f7d565b600d82019050919050565b6000612fd58285612efe565b9150612fe18284612bd8565b9150612fec82612fa6565b91508190509392505050565b7f7b226e616d65223a202200000000000000000000000000000000000000000000600082015250565b600061302e600a83612b81565b915061303982612ff8565b600a82019050919050565b7f222c20226465736372697074696f6e223a20224120686967686c79206163636c60008201527f61696d656420636f6c6c656374696f6e206f6620737175617265732e222c202260208201527f696d616765223a2022646174613a696d6167652f7376672b786d6c3b6261736560408201527f36342c0000000000000000000000000000000000000000000000000000000000606082015250565b60006130ec606383612b81565b91506130f782613044565b606382019050919050565b7f227d000000000000000000000000000000000000000000000000000000000000600082015250565b6000613138600283612b81565b915061314382613102565b600282019050919050565b600061315982613021565b91506131658285612bd8565b9150613170826130df565b915061317c8284612bd8565b91506131878261312b565b91508190509392505050565b7f646174613a6170706c69636174696f6e2f6a736f6e3b6261736536342c000000600082015250565b60006131c9601d83612b81565b91506131d482613193565b601d82019050919050565b60006131ea826131bc565b91506131f68284612bd8565b915081905092915050565b600060408201905061321660008301856125f0565b61322360208301846123b1565b9392505050565b7f4552433732313a207472616e736665722066726f6d20696e636f72726563742060008201527f6f776e6572000000000000000000000000000000000000000000000000000000602082015250565b60006132866025836124b5565b91506132918261322a565b604082019050919050565b600060208201905081810360008301526132b581613279565b9050919050565b7f4552433732313a207472616e7366657220746f20746865207a65726f2061646460008201527f7265737300000000000000000000000000000000000000000000000000000000602082015250565b60006133186024836124b5565b9150613323826132bc565b604082019050919050565b600060208201905081810360008301526133478161330b565b9050919050565b7f4e487b7100000000000000000000000000000000000000000000000000000000600052601160045260246000fd5b6000613388826123a7565b9150613393836123a7565b9250828210156133a6576133a561334e565b5b828203905092915050565b60006133bc826123a7565b91506133c7836123a7565b9250827fffffffffffffffffffffffffffffffffffffffffffffffffffffffffffffffff038211156133fc576133fb61334e565b5b828201905092915050565b6000613412826123a7565b91507fffffffffffffffffffffffffffffffffffffffffffffffffffffffffffffffff8214156134455761344461334e565b5b600182019050919050565b600061345b826123a7565b9150613466836123a7565b92508261347657613475612c2b565b5b828204905092915050565b600061348d8284612bd8565b915081905092915050565b600060408201905081810360008301526134b2818561250a565b90506134c160208301846123b1565b9392505050565b7f4552433732313a20617070726f766520746f2063616c6c657200000000000000600082015250565b60006134fe6019836124b5565b9150613509826134c8565b602082019050919050565b6000602082019050818103600083015261352d816134f1565b9050919050565b7f4552433732313a207472616e7366657220746f206e6f6e20455243373231526560008201527f63656976657220696d706c656d656e7465720000000000000000000000000000602082015250565b60006135906032836124b5565b915061359b82613534565b604082019050919050565b600060208201905081810360008301526135bf81613583565b9050919050565b60006135d1826123a7565b91506135dc836123a7565b9250817fffffffffffffffffffffffffffffffffffffffffffffffffffffffffffffffff04831182151516156136155761361461334e565b5b828202905092915050565b7f45524337323155524953746f726167653a2055524920736574206f66206e6f6e60008201527f6578697374656e7420746f6b656e000000000000000000000000000000000000602082015250565b600061367c602e836124b5565b915061368782613620565b604082019050919050565b600060208201905081810360008301526136ab8161366f565b9050919050565b600060608201905081810360008301526136cc818661250a565b90506136db60208301856123b1565b6136e860408301846125f0565b949350505050565b600081519050919050565b600082825260208201905092915050565b6000613717826136f0565b61372181856136fb565b93506137318185602086016124c6565b61373a816124f9565b840191505092915050565b600060808201905061375a60008301876125f0565b61376760208301866125f0565b61377460408301856123b1565b8181036060830152613786818461370c565b905095945050505050565b6000815190506137a08161241b565b92915050565b6000602082840312156137bc576137bb6123e5565b5b60006137ca84828501613791565b91505092915050565b7f4552433732313a206d696e7420746f20746865207a65726f2061646472657373600082015250565b60006138096020836124b5565b9150613814826137d3565b602082019050919050565b60006020820190508181036000830152613838816137fc565b9050919050565b7f4552433732313a20746f6b656e20616c7265616479206d696e74656400000000600082015250565b6000613875601c836124b5565b91506138808261383f565b602082019050919050565b600060208201905081810360008301526138a481613868565b905091905056fe416e204e465420772f20494420257320686173206265656e206d696e74656420746f2025734142434445464748494a4b4c4d4e4f505152535455565758595a6162636465666768696a6b6c6d6e6f707172737475767778797a303132333435363738392b2fa26469706673582212205574720b8a25bd2f619dc14d9cf7ff34c8dc67442c2151ec4fd606c6273c23a764736f6c634300080900333c73766720786d6c6e733d27687474703a2f2f7777772e77332e6f72672f323030302f73766727207072657365727665417370656374526174696f3d27784d696e594d696e206d656574272076696577426f783d273020302033353020333530273e3c7374796c653e2e62617365207b2066696c6c3a2077686974653b20666f6e742d66616d696c793a2073657269663b20666f6e742d73697a653a20323470783b207d3c2f7374796c653e3c726563742077696474683d273130302527206865696768743d2731303025272066696c6c3d27626c61636b27202f3e3c7465787420783d273530252720793d273530252720636c6173733d27626173652720646f6d696e616e742d626173656c696e653d276d6964646c652720746578742d616e63686f723d276d6964646c65273e",
  "linkReferences": {},
  "deployedLinkReferences": {}
}